S00F00007470322D656E742E737265638B
S11300000C9454000C9471000C9471000C947100C5
S11300100C9471000C9471000C9471000C94710098
S11300200C9471000C9471000C9471000C94710088
S11300300C9471000C9471000C9471000C94710078
S11300400C9463030C9471000C9471000C94710073
S11300500C9471000C9471000C9471000C94710058
S11300600C9471000C947100001F000000001F002C
S1130070001F101010101F00001F181818181F0060
S1130080001F1C1C1C1C1F00001F1E1E1E1E1F0008
S1130090001F1F1F1F1F1F0003070F1F0F07030051
S11300A0181C1E1F1E1C180011241FBECFEFD8E001
S11300B0DEBFCDBF11E0A0E0B1E0E2E8FCE002C0A9
S11300C005900D92AE35B107D9F721E0AEE5B1E068
S11300D001C01D92A236B207E1F70E948E030C9470
S11300E03F060C94000084B1867E84B98AB18F7770
S11300F08AB985B1896185B98BB180688BB98AB1B8
S11301008C638AB98BB1837C8BB90895EF92FF928B
S11301100F931F93CF937C01C0E080E053C09AB14A
S11301206C2F70E0FB01EC5FFE4F21E030E00080BB
S113013002C0220F331F0A94E2F7922B9AB99BB1A3
S1130140209529232BB990E01FC0E3B1492F50E03B
S11301508A01085F1E4F21E030E0D8010C9002C0F4
S1130160220F331F0A94E2F72E2369F4FA01EE0FEB
S1130170FF1FEE0FFF1FE55FFE4FE60FF71F8081A5
S1130180F701808381E09F5F9330F8F24F9907C0B5
S1130190FB01E55FFE4F8485D7018C9381E09BB121
S11301A0FB01EC5FFE4F21E030E0008002C0220F33
S11301B0331F0A94E2F7922B9BB99AB12095292315
S11301C02AB9CF5FC43008F4AACFCF911F910F9101
S11301D0FF90EF90089565B1982F9074492F50E0E7
S11301E055954795559547955595479555954795F3
S11301F0982F9078292F30E0022E232F000C221FF5
S1130200330B000C221F331F962F997F492B242B6D
S113021025B968B1982F9071492F50E055954795AD
S11302205595479555954795982F9072292F30E00D
S1130230359527953595279535952795962F997F4B
S1130240492B242B28B99BB192609BB99BB1916037
S11302509BB925ED2A95F1F700009BB19E7F9BB9D0
S11302609BB19D7F9BB995ED9A95F1F7000065B11F
S113027020E1829FC0011124AC014074552755959B
S113028047955595479555954795559547959C019F
S113029020783327022E232F000C221F330B000C4F
S11302A0221F331F362F397F432B242B25B948B106
S11302B09C012071332735952795359527953595DC
S11302C02795807299279595879595958795959506
S11302D08795942F997F292B822B88B98BB18260C3
S11302E08BB98BB181608BB985ED8A95F1F70000EC
S11302F08BB18E7F8BB98BB18D7F8BB995ED9A9530
S1130300F1F70000089565B1982F9074492F50E0DB
S113031055954795559547955595479555954795C1
S1130320982F9078292F30E0022E232F000C221FC3
S1130330330B000C221F331F962F997F492B242B3C
S113034025B968B1982F9071492F50E0559547957C
S11303505595479555954795982F9072292F30E0DC
S1130360359527953595279535952795962F997F1A
S1130370492B242B28B99BB191609BB9EFE9FFE08D
S11303803197F1F700C000009BB19E7F9BB9EFE964
S1130390FFE03197F1F700C0000065B1F0E18F9FF5
S11303A0C0011124AC0140745527559547955595C6
S11303B0479555954795559547959C012078332742
S11303C0022E232F000C221F330B000C221F331F7D
S11303D0362F397F432B242B25B948B19C0120713A
S11303E0332735952795359527953595279580722B
S11303F09927959587959595879595958795942FA4
S1130400997F292B822B88B98BB181608BB98FE9B5
S11304109FE00197F1F700C000008BB18E7F8BB98C
S1130420EFE9FFE03197F1F700C00000089581E0A3
S11304300E94830108950F931F93CF93DF93009736
S113044069F0D62F8C01C0E007C0F801EC0FF11D54
S113045080810E94EB00CF5FCD17B8F3DF91CF917D
S11304601F910F910895623031F0633031F06130A3
S113047029F4805C03C08C5E01C08C5A80680E94A1
S113048083010895EF92FF920F931F93CF93DF930D
S11304907C01862F90E0880F991F880F991F880F81
S11304A0991F8064C0E0D0E00DC0F701EC0FFD1F80
S11304B0149101E0080F0E948301812F0E94EB0038
S11304C02196802FC830D10580F3DF91CF911F9101
S11304D00F91FF90EF900895CF93DF938FE59AEEFD
S11304E00197F1F700C0000085B1897F85B988B113
S11304F0897F88B91BB887B1866087B984B1866063
S113050084B984B1866084B987B1866087B98AB1B9
S113051083608AB985B1897F85B988B1866088B9D5
S11305208BB181608BB98FE99FE00197F1F700C02F
S113053000008BB18E7F8BB98FE99FE00197F1F7B3
S113054000C0000085B1897F85B988B1866088B90B
S11305508BB181608BB98FE99FE00197F1F700C0FF
S113056000008BB18E7F8BB98FE99FE00197F1F783
S113057000C0000085B1897F85B988B1897F846016
S113058088B98BB181608BB98FE99FE00197F1F74E
S113059000C000008BB18E7F8BB98FE99FE001977B
S11305A0F1F700C0000088E20E9483018CE00E9401
S11305B0830160E0C0E00AC0D1E0D60F8C2F90E048
S11305C088599F4F0E944202C85F6D2FC034A0F328
S11305D0DF91CF910895CF93DF93D82FC0E004C06B
S11305E080E10E948301CF5FCD17D0F3DF91CF91DB
S11305F00895EF92FF920F931F93CF93DF9300D050
S113060000D01F92CDB7DEB77B01FE01319625E005
S1130610DF011D922A95E9F724E030E00FC06AE07B
S113062070E00E945805E1E0F0E0EC0FFD1FE20FDE
S1130630F31F8083862F972F21503109009779F774
S1130640BFEFEB16FB0681F403C00F5F1F4F02C020
S113065000E010E0E1E0F0E0EC0FFD1FE00FF11F1F
S11306602081222391F304C005E010E00E191F0934
S1130670992384F48DE20E94EB000CC0E1E0F0E0E9
S1130680EC0FFD1FE00FF11F8081805D0E94EB00E5
S11306900F5F1F4F053011058CF30F900F900F90D3
S11306A00F900F90DF91CF911F910F91FF90EF90DA
S11306B0089583E085BD86E086BDEEE6F0E08081A6
S11306C08160808308951F920F920FB60F921124B8
S11306D08F939F93AF93BF9386E086BD95B180E2DD
S11306E0892785B980915E0190915F01A091600195
S11306F0B09161010196A11DB11D80935E0190939B
S11307005F01A0936001B0936101BF91AF919F918C
S11307108F910F900FBE0F901F901895CF93DF937A
S1130720CDB7DEB7CF54D1090FB6F894DEBF0FBEF4
S1130730CDBF0E946C028FE99FE00197F1F700C0E2
S113074000000E9417028FE99FE00197F1F700C0B3
S113075000000E9473008FE99FE00197F1F700C049
S113076000000E94590384B1806284B980E1EBE106
S1130770F1E0DE01129601900D928A95E1F788E08E
S1130780EBE2F1E0DE01529601900D928A95E1F7D9
S11307908CE0E3E3F1E0DE015A9601900D928A9534
S11307A0E1F78EE390E09FA38EA38CE390E099A7FA
S11307B088A78FE0EFE3F1E0DE019A9601900D92B5
S11307C08A95E1F788E0EEE4F1E0DE01D996019044
S11307D00D928A95E1F787E0E6E5F1E0DE01AF5B93
S11307E0BF4F01900D928A95E1F7E12C10E001C012
S11307F011E0123009F46FC028F4112351F01130C4
S113080011F1F7CF133009F413C1143009F49EC069
S1130810F0CF60E080E00E9433026FE0CE010296E8
S11308200E941B02CE0101960E948600882309F3D0
S113083089818134E9F261E080E00E943302898198
S11308400E94EB00D6CF0E94170260E080E00E9475
S1130850330267E0CE0142960E941B0261E080E011
S11308600E9433026BE0CE014A960E941B029FEF66
S113087021EE84E0915020408040E1F700C0000068
S113088010925E0110925F0110926001109261015A
S1130890789486B590E00E9402060E94FD050F2E12
S11308A0FAE0AF2EB12CF02DB5010E945805082FA7
S11308B00E94FD05B5010E945805F82E9FEF2BE715
S11308C082E9915020408040E1F700C000000E947E
S11308D0170212E08ECFCE0101960E948600882373
S11308E009F487CF898180538A30E8F460E08E2D43
S11308F00E94330289810E94EB00E8E4F0E0EC0FEF
S1130900FD1FEE0DF11D89818083E39493E0E912CC
S11309100AC060E080E00E9433026EE0CE018A9655
S11309200E941B02E12C8981813411F4E12C13E033
S1130930843411F4E12C10E02FEF85EA9EE021507D
S113094080409040E1F700C0000053CF0E9417029E
S113095060E080E00E94330267E0CE01C9960E9405
S11309601B0261E080E00E94330240905E015090DF
S11309705F016090600170906101C301B20128EED3
S113098033E040E050E00E946C054B015C01CA0179
S1130990B9012CE330E040E050E00E946C05609621
S11309A06CAF7DAF8EAF9FAF609761E070E080E089
S11309B090E020E642162AEE52062FEF62067206F7
S11309C018F460E070E0CB012CE330E040E050E04C
S11309D00E946C052B013C0166E0CE018F5B9F4FAA
S11309E00E941B0262E070E0C2010E94F9028AE3E5
S11309F00E94EB0062E070E02E968EAD9FAD2E97C4
S1130A000E94F9028AE30E94EB0063E070E0C401F3
S1130A100E94F902F8948FEF9BE722E981509040FD
S1130A202040E1F700C000000E94170210E0E1CE70
S1130A3029969FAD299790532A961FAD2A97105354
S1130A40802F901302C01F1569F1981750F461E0CC
S1130A50CE0186960E941B0281E00E94EB0281E097
S1130A600DC0891750F461E0CE0188960E941B02E4
S1130A7081E00E94EB0281E001C080E0811114C09A
S1130A801F1538F461E0CE0186960E941B0212E025
S1130A90B0CEF11658F461E0CE0188960E941B0294
S1130AA012E0A7CE14E0A5CE12E0A3CE12E0A1CEB0
S1130AB097FB072E16F4009407D077FD09D00E9407
S1130AC09D0507FC05D03EF4909581959F4F0895B0
S1130AD0709561957F4F0895A1E21A2EAA1BBB1B46
S1130AE0FD010DC0AA1FBB1FEE1FFF1FA217B307F6
S1130AF0E407F50720F0A21BB30BE40BF50B661F0C
S1130B00771F881F991F1A9469F7609570958095CF
S1130B1090959B01AC01BD01CF010895A29FB00146
S1130B20B39FC001A39F700D811D1124911DB29F1D
S1130B30700D811D1124911D0895AA1BBB1B51E149
S1130B4007C0AA1FBB1FA617B70710F0A61BB70B39
S1130B50881F991F5A95A9F780959095BC01CD01DE
S1130B6008958F929F92AF92BF92CF92DF92EF92AD
S1130B70FF92CF93DF93EC01688179818A819B8115
S1130B80611571058105910521F464E279ED8BE528
S1130B9097E02DE133EF41E050E00E940D0649015A
S1130BA05A019B01AC01A7EAB1E40E942C066B0137
S1130BB07C01ACEEB4EFA50194010E943A06DC017D
S1130BC0CB018C0D9D1DAE1DBF1DB7FF03C001974A
S1130BD0A109B04888839983AA83BB839F77DF9157
S1130BE0CF91FF90EF90DF90CF90BF90AF909F9008
S1130BF08F9008950E94B105089580E091E00E94CD
S1130C00B1050895A0E0B0E0809300019093010144
S1130C10A0930201B09303010895052E97FB1EF4DF
S1130C2000940E94240657FD07D00E946C0507FC1F
S1130C3003D04EF40C94240650954095309521959C
S1130C403F4F4F4F5F4F08959095809570956195F4
S1130C507F4F8F4F9F4F08950E948E05A59F900D43
S1130C60B49F900DA49F800D911D11240895B7FF8A
S1130C700C942C060E942C06821B930B0895F89466
S1050C80FFCFA0
S1130C82010000000305040204030031323341343D
S1130C92353642373839432A302344502F4A554790
S1130CA241522050554C53452041004A5547414E2C
S1130CB2444F00494E4752455345204E554D004638
S1130CC2554552412044452052414E474F00474129
S1110CD24E41444F520054494D453A20000013
S9030000FC
